{
  "contractName": "Voting",
  "abi": [
    {
      "inputs": [
        {
          "internalType": "string[]",
          "name": "_candidateNames",
          "type": "string[]"
        },
        {
          "internalType": "uint256",
          "name": "_durationInMinutes",
          "type": "uint256"
        }
      ],
      "stateMutability": "nonpayable",
      "type": "constructor"
    },
    {
      "inputs": [
        {
          "internalType": "uint256",
          "name": "",
          "type": "uint256"
        }
      ],
      "name": "candidates",
      "outputs": [
        {
          "internalType": "string",
          "name": "name",
          "type": "string"
        },
        {
          "internalType": "uint256",
          "name": "voteCount",
          "type": "uint256"
        }
      ],
      "stateMutability": "view",
      "type": "function",
      "constant": true
    },
    {
      "inputs": [
        {
          "internalType": "address",
          "name": "",
          "type": "address"
        }
      ],
      "name": "voters",
      "outputs": [
        {
          "internalType": "bool",
          "name": "",
          "type": "bool"
        }
      ],
      "stateMutability": "view",
      "type": "function",
      "constant": true
    },
    {
      "inputs": [],
      "name": "votingEnd",
      "outputs": [
        {
          "internalType": "uint256",
          "name": "",
          "type": "uint256"
        }
      ],
      "stateMutability": "view",
      "type": "function",
      "constant": true
    },
    {
      "inputs": [],
      "name": "votingStart",
      "outputs": [
        {
          "internalType": "uint256",
          "name": "",
          "type": "uint256"
        }
      ],
      "stateMutability": "view",
      "type": "function",
      "constant": true
    },
    {
      "inputs": [
        {
          "internalType": "string",
          "name": "_name",
          "type": "string"
        }
      ],
      "name": "addCandidate",
      "outputs": [],
      "stateMutability": "nonpayable",
      "type": "function"
    },
    {
      "inputs": [
        {
          "internalType": "uint256",
          "name": "_candidateIndex",
          "type": "uint256"
        }
      ],
      "name": "vote",
      "outputs": [],
      "stateMutability": "nonpayable",
      "type": "function"
    },
    {
      "inputs": [],
      "name": "getAllVotesOfCandiates",
      "outputs": [
        {
          "components": [
            {
              "internalType": "string",
              "name": "name",
              "type": "string"
            },
            {
              "internalType": "uint256",
              "name": "voteCount",
              "type": "uint256"
            }
          ],
          "internalType": "struct Voting.Candidate[]",
          "name": "",
          "type": "tuple[]"
        }
      ],
      "stateMutability": "view",
      "type": "function",
      "constant": true
    },
    {
      "inputs": [],
      "name": "getVotingStatus",
      "outputs": [
        {
          "internalType": "bool",
          "name": "",
          "type": "bool"
        }
      ],
      "stateMutability": "view",
      "type": "function",
      "constant": true
    },
    {
      "inputs": [],
      "name": "getRemainingTime",
      "outputs": [
        {
          "internalType": "uint256",
          "name": "",
          "type": "uint256"
        }
      ],
      "stateMutability": "view",
      "type": "function",
      "constant": true
    }
  ],
  "bytecode": "0x60806040523480156200001157600080fd5b50604051620014cd380380620014cd833981810160405281019062000037919062000345565b60005b82518110156200010757600060405180604001604052808584815181106200008b577f4e487b7100000000000000000000000000000000000000000000000000000000600052603260045260246000fd5b60200260200101518152602001600081525090806001815401808255809150506001900390600052602060002090600202016000909190919091506000820151816000019080519060200190620000e49291906200017a565b506020820151816001015550508080620000fe9062000569565b9150506200003a565b5033600160006101000a81548173ffffffffffffffffffffffffffffffffffffffff021916908373ffffffffffffffffffffffffffffffffffffffff16021790555042600381905550603c816200015f919062000492565b426200016c919062000435565b60048190555050506200065e565b828054620001889062000533565b90600052602060002090601f016020900481019282620001ac5760008555620001f8565b82601f10620001c757805160ff1916838001178555620001f8565b82800160010185558215620001f8579182015b82811115620001f7578251825591602001919060010190620001da565b5b5090506200020791906200020b565b5090565b5b80821115620002265760008160009055506001016200020c565b5090565b6000620002416200023b84620003d3565b6200039f565b9050808382526020820190508260005b858110156200028557815185016200026a888262000301565b84526020840193506020830192505060018101905062000251565b5050509392505050565b6000620002a6620002a08462000402565b6200039f565b905082815260208101848484011115620002bf57600080fd5b620002cc848285620004fd565b509392505050565b600082601f830112620002e657600080fd5b8151620002f88482602086016200022a565b91505092915050565b600082601f8301126200031357600080fd5b8151620003258482602086016200028f565b91505092915050565b6000815190506200033f8162000644565b92915050565b600080604083850312156200035957600080fd5b600083015167ffffffffffffffff8111156200037457600080fd5b6200038285828601620002d4565b925050602062000395858286016200032e565b9150509250929050565b6000604051905081810181811067ffffffffffffffff82111715620003c957620003c862000615565b5b8060405250919050565b600067ffffffffffffffff821115620003f157620003f062000615565b5b602082029050602081019050919050565b600067ffffffffffffffff82111562000420576200041f62000615565b5b601f19601f8301169050602081019050919050565b60006200044282620004f3565b91506200044f83620004f3565b9250827fffffffffffffffffffffffffffffffffffffffffffffffffffffffffffffffff03821115620004875762000486620005b7565b5b828201905092915050565b60006200049f82620004f3565b9150620004ac83620004f3565b9250817fffffffffffffffffffffffffffffffffffffffffffffffffffffffffffffffff0483118215151615620004e857620004e7620005b7565b5b828202905092915050565b6000819050919050565b60005b838110156200051d57808201518184015260208101905062000500565b838111156200052d576000848401525b50505050565b600060028204905060018216806200054c57607f821691505b60208210811415620005635762000562620005e6565b5b50919050565b60006200057682620004f3565b91507fffffffffffffffffffffffffffffffffffffffffffffffffffffffffffffffff821415620005ac57620005ab620005b7565b5b600182019050919050565b7f4e487b7100000000000000000000000000000000000000000000000000000000600052601160045260246000fd5b7f4e487b7100000000000000000000000000000000000000000000000000000000600052602260045260246000fd5b7f4e487b7100000000000000000000000000000000000000000000000000000000600052604160045260246000fd5b6200064f81620004f3565b81146200065b57600080fd5b50565b610e5f806200066e6000396000f3fe608060405234801561001057600080fd5b50600436106100935760003560e01c80634d6bda5f116100665780634d6bda5f1461011f578063581c281c1461013d57806385a386351461015b578063a3ec138d14610179578063efb98bcf146101a957610093565b80630121b93f14610098578063101158af146100b45780633477ee2e146100d2578063462e91ec14610103575b600080fd5b6100b260048036038101906100ad9190610827565b6101c7565b005b6100bc610357565b6040516100c99190610b42565b60405180910390f35b6100ec60048036038101906100e79190610827565b61035d565b6040516100fa929190610ab2565b60405180910390f35b61011d600480360381019061011891906107e6565b610419565b005b6101276104e0565b6040516101349190610a75565b60405180910390f35b6101456105db565b6040516101529190610a97565b60405180910390f35b6101636105f5565b6040516101709190610b42565b60405180910390f35b610193600480360381019061018e91906107bd565b6105fb565b6040516101a09190610a97565b60405180910390f35b6101b161061b565b6040516101be9190610b42565b60405180910390f35b600260003373ffffffffffffffffffffffffffffffffffffffff1673ffffffffffffffffffffffffffffffffffffffff16815260200190815260200160002060009054906101000a900460ff1615610254576040517f08c379a000000000000000000000000000000000000000000000000000000000815260040161024b90610ae2565b60405180910390fd5b600080549050811061029b576040517f08c379a000000000000000000000000000000000000000000000000000000000815260040161029290610b02565b60405180910390fd5b600081815481106102d5577f4e487b7100000000000000000000000000000000000000000000000000000000600052603260045260246000fd5b906000526020600020906002020160010160008154809291906102f790610d14565b91905055506001600260003373ffffffffffffffffffffffffffffffffffffffff1673ffffffffffffffffffffffffffffffffffffffff16815260200190815260200160002060006101000a81548160ff02191690831515021790555050565b60035481565b6000818154811061036d57600080fd5b906000526020600020906002020160009150905080600001805461039090610ce2565b80601f01602080910402602001604051908101604052809291908181526020018280546103bc90610ce2565b80156104095780601f106103de57610100808354040283529160200191610409565b820191906000526020600020905b8154815290600101906020018083116103ec57829003601f168201915b5050505050908060010154905082565b600160009054906101000a900473ffffffffffffffffffffffffffffffffffffffff1673ffffffffffffffffffffffffffffffffffffffff163373ffffffffffffffffffffffffffffffffffffffff161461047357600080fd5b600060405180604001604052808381526020016000815250908060018154018082558091505060019003906000526020600020906002020160009091909190915060008201518160000190805190602001906104d0929190610688565b5060208201518160010155505050565b60606000805480602002602001604051908101604052809291908181526020016000905b828210156105d2578382906000526020600020906002020160405180604001604052908160008201805461053790610ce2565b80601f016020809104026020016040519081016040528092919081815260200182805461056390610ce2565b80156105b05780601f10610585576101008083540402835291602001916105b0565b820191906000526020600020905b81548152906001019060200180831161059357829003601f168201915b5050505050815260200160018201548152505081526020019060010190610504565b50505050905090565b600060035442101580156105f0575060045442105b905090565b60045481565b60026020528060005260406000206000915054906101000a900460ff1681565b6000600354421015610662576040517f08c379a000000000000000000000000000000000000000000000000000000000815260040161065990610b22565b60405180910390fd5b60045442106106745760009050610685565b426004546106829190610c24565b90505b90565b82805461069490610ce2565b90600052602060002090601f0160209004810192826106b657600085556106fd565b82601f106106cf57805160ff19168380011785556106fd565b828001600101855582156106fd579182015b828111156106fc5782518255916020019190600101906106e1565b5b50905061070a919061070e565b5090565b5b8082111561072757600081600090555060010161070f565b5090565b600061073e61073984610b8e565b610b5d565b90508281526020810184848401111561075657600080fd5b610761848285610ca0565b509392505050565b60008135905061077881610dfb565b92915050565b600082601f83011261078f57600080fd5b813561079f84826020860161072b565b91505092915050565b6000813590506107b781610e12565b92915050565b6000602082840312156107cf57600080fd5b60006107dd84828501610769565b91505092915050565b6000602082840312156107f857600080fd5b600082013567ffffffffffffffff81111561081257600080fd5b61081e8482850161077e565b91505092915050565b60006020828403121561083957600080fd5b6000610847848285016107a8565b91505092915050565b600061085c8383610a1a565b905092915050565b600061086f82610bce565b6108798185610bf1565b93508360208202850161088b85610bbe565b8060005b858110156108c757848403895281516108a88582610850565b94506108b383610be4565b925060208a0199505060018101905061088f565b50829750879550505050505092915050565b6108e281610c6a565b82525050565b60006108f382610bd9565b6108fd8185610c02565b935061090d818560208601610caf565b61091681610dea565b840191505092915050565b600061092c82610bd9565b6109368185610c13565b9350610946818560208601610caf565b61094f81610dea565b840191505092915050565b6000610967601783610c13565b91507f596f75206861766520616c726561647920766f7465642e0000000000000000006000830152602082019050919050565b60006109a7601883610c13565b91507f496e76616c69642063616e64696461746520696e6465782e00000000000000006000830152602082019050919050565b60006109e7601b83610c13565b91507f566f74696e6720686173206e6f742073746172746564207965742e00000000006000830152602082019050919050565b60006040830160008301518482036000860152610a3782826108e8565b9150506020830151610a4c6020860182610a57565b508091505092915050565b610a6081610c96565b82525050565b610a6f81610c96565b82525050565b60006020820190508181036000830152610a8f8184610864565b905092915050565b6000602082019050610aac60008301846108d9565b92915050565b60006040820190508181036000830152610acc8185610921565b9050610adb6020830184610a66565b9392505050565b60006020820190508181036000830152610afb8161095a565b9050919050565b60006020820190508181036000830152610b1b8161099a565b9050919050565b60006020820190508181036000830152610b3b816109da565b9050919050565b6000602082019050610b576000830184610a66565b92915050565b6000604051905081810181811067ffffffffffffffff82111715610b8457610b83610dbb565b5b8060405250919050565b600067ffffffffffffffff821115610ba957610ba8610dbb565b5b601f19601f8301169050602081019050919050565b6000819050602082019050919050565b600081519050919050565b600081519050919050565b6000602082019050919050565b600082825260208201905092915050565b600082825260208201905092915050565b600082825260208201905092915050565b6000610c2f82610c96565b9150610c3a83610c96565b925082821015610c4d57610c4c610d5d565b5b828203905092915050565b6000610c6382610c76565b9050919050565b60008115159050919050565b600073ffffffffffffffffffffffffffffffffffffffff82169050919050565b6000819050919050565b82818337600083830152505050565b60005b83811015610ccd578082015181840152602081019050610cb2565b83811115610cdc576000848401525b50505050565b60006002820490506001821680610cfa57607f821691505b60208210811415610d0e57610d0d610d8c565b5b50919050565b6000610d1f82610c96565b91507fffffffffffffffffffffffffffffffffffffffffffffffffffffffffffffffff821415610d5257610d51610d5d565b5b600182019050919050565b7f4e487b7100000000000000000000000000000000000000000000000000000000600052601160045260246000fd5b7f4e487b7100000000000000000000000000000000000000000000000000000000600052602260045260246000fd5b7f4e487b7100000000000000000000000000000000000000000000000000000000600052604160045260246000fd5b6000601f19601f8301169050919050565b610e0481610c58565b8114610e0f57600080fd5b50565b610e1b81610c96565b8114610e2657600080fd5b5056fea264697066735822122015c44f65ac75954f611c55890cedca6e6c19720861503155dea5001e23bd295a64736f6c63430008000033",
  "immutableReferences": {},
  "source": "// SPDX-License-Identifier: MIT\r\npragma solidity ^0.8.0;\r\n\r\ncontract Voting {\r\n    struct Candidate {\r\n        string name;\r\n        uint256 voteCount;\r\n    }\r\n\r\n    Candidate[] public candidates;\r\n    address owner;\r\n    mapping(address => bool) public voters;\r\n\r\n    uint256 public votingStart;\r\n    uint256 public votingEnd;\r\n\r\nconstructor(string[] memory _candidateNames, uint256 _durationInMinutes) {\r\n    for (uint256 i = 0; i < _candidateNames.length; i++) {\r\n        candidates.push(Candidate({\r\n            name: _candidateNames[i],\r\n            voteCount: 0\r\n        }));\r\n    }\r\n    owner = msg.sender;\r\n    votingStart = block.timestamp;\r\n    votingEnd = block.timestamp + (_durationInMinutes * 1 minutes);\r\n}\r\n\r\n    modifier onlyOwner {\r\n        require(msg.sender == owner);\r\n        _;\r\n    }\r\n\r\n    function addCandidate(string memory _name) public onlyOwner {\r\n        candidates.push(Candidate({\r\n                name: _name,\r\n                voteCount: 0\r\n        }));\r\n    }\r\n\r\n    function vote(uint256 _candidateIndex) public {\r\n        require(!voters[msg.sender], \"You have already voted.\");\r\n        require(_candidateIndex < candidates.length, \"Invalid candidate index.\");\r\n\r\n        candidates[_candidateIndex].voteCount++;\r\n        voters[msg.sender] = true;\r\n    }\r\n\r\n    function getAllVotesOfCandiates() public view returns (Candidate[] memory){\r\n        return candidates;\r\n    }\r\n\r\n    function getVotingStatus() public view returns (bool) {\r\n        return (block.timestamp >= votingStart && block.timestamp < votingEnd);\r\n    }\r\n\r\n    function getRemainingTime() public view returns (uint256) {\r\n        require(block.timestamp >= votingStart, \"Voting has not started yet.\");\r\n        if (block.timestamp >= votingEnd) {\r\n            return 0;\r\n    }\r\n        return votingEnd - block.timestamp;\r\n    }\r\n}\r\n",
  "sourcePath": "C:\\Users\\pavan sidhartha\\React-Voting-Application\\contracts\\Voting.sol",
  "compiler": {
    "name": "solc",
    "version": "0.8.0+commit.c7dfd78e.Emscripten.clang"
  },
  "schemaVersion": "3.4.16",
  "updatedAt": "2023-11-08T18:33:26.383Z",
  "networkType": "ethereum",
  "devdoc": {
    "kind": "dev",
    "methods": {},
    "version": 1
  },
  "userdoc": {
    "kind": "user",
    "methods": {},
    "version": 1
  }
}